:020000040800F2
:100000008806002031020008390200083B0200087F
:100010003D0200083F020008410200080000000005
:100020000000000000000000000000004302000883
:1000300045020008000000004702000849020008CD
:100040004B0200084B0200084B0200084B0200085C
:100050004B0200084B0200084B0200084B0200084C
:100060004B0200084B0200084B0200084B0200083C
:100070004B0200084B0200084B0200084B0200082C
:100080004B0200084B0200084B0200084B0200081C
:100090004B0200084B0200084B0200084B0200080C
:1000A0004B0200084B0200084B0200084B020008FC
:1000B0004B0200084B0200084B0200084B020008EC
:1000C0004B0200084B0200084B0200084B020008DC
:1000D0004B0200084B0200084B0200084B020008CC
:1000E0004B0200084B0200084B0200084B020008BC
:1000F0004B0200084B0200084B0200084B020008AC
:100100004B0200084B0200084B0200084B0200089B
:100110004B0200084B0200084B0200084B0200088B
:100120004B0200084B0200084B0200084B0200087B
:100130004B0200084B0200084B0200084B0200086B
:100140004B0200084B0200084B0200084B0200085B
:100150004B0200084B0200084B0200084B0200084B
:100160004B0200084B0200084B0200084B0200083B
:100170004B0200084B0200084B0200080000000080
:100180004B0200084B02000800F002F800F040F8B3
:100190000AA090E8000C82448344AAF10107DA45E2
:1001A00001D100F035F8AFF2090EBAE80F0013F0F4
:1001B000010F18BFFB1A43F001031847A00B000002
:1001C000C00B0000103A24BF78C878C1FAD8520793
:1001D00024BF30C830C144BF04680C6070470000C1
:1001E0000023002400250026103A28BF78C1FBD840
:1001F000520728BF30C148BF0B6070471FB500F0E1
:100200009FFD9DE8030000F0A9F81FBD10B510BDCB
:1002100000F000F91146FFF7F1FF00F061FD00F07A
:100220001EF903B4FFF7F2FF03BC00F04FF9000022
:100230000948804709480047FEE7FEE7FEE7FEE77A
:10024000FEE7FEE7FEE7FEE7FEE7FEE704480549B6
:10025000054A064B70470000890C00088901000818
:1002600088000020880600208802002088020020E4
:1002700070B5064600F056F8056806F10B0020F050
:100280000704B4429CBF002070BD2B466A68BAB117
:100290001068A04210D304F1080188423CBF5068A6
:1002A000586007D35168101941601168091B01603B
:1002B00058601460101D70BD13465268002AE7D1C3
:1002C0002146284600F036F80028DED170BD70B512
:1002D0000446051F00F026F80068002C14BF44688F
:1002E00070BD002C18BFAC423CBF20466468F8D3F8
:1002F00001680A18AA4218BF456003D12A6805465A
:100300001144016028684119A1421CBF6C6070BD96
:100310006168696021680844286070BD7047704753
:100320007047000000487047100000207047704779
:100330007047704738B504460A4600206946AFF357
:100340000080002808BF38BD02460099204600F012
:100350003FF8012038BD012000F054B8F8B5AFF3E4
:100360000080054600200C46102000BF0646A81954
:10037000A0420DD9324669460020AFF30080070045
:1003800008BF00F03FF80098A04218BF0546C41906
:10039000FFF7C8FF05600746F01D20F0070046196B
:1003A000284600F00AF8B44208BFF8BDA21B314647
:1003B0003868BDE8F84000F00BB800210160C0E9E2
:1003C0000110704710207047004870470800002057
:1003D000034640688C46002818BF88423CBF03464D
:1003E0004068F8D318681844884207D00CF103001D
:1003F00020F00700001D411A521A0146081D0A602C
:10040000FFF765BF10B500F039F8BDE8104000F007
:100410002FB870477546FFF7D7FFAE46050069460F
:10042000534620F00700854618B020B5FFF70EFFB1
:10043000BDE820404FF000064FF000074FF00008E5
:100440004FF0000BAC46ACE8C009ACE8C009ACE822
:10045000C009ACE8C00921F007018D46704710B50E
:100460000446AFF300802046BDE81040FFF7D9BE38
:10047000002801D000F02AB87047000010B501280C
:1004800005D0002103A000F027F8012010BD09A12C
:10049000F8E7000053494752544D454D3A204F75F7
:1004A00074206F662068656170206D656D6F72796C
:1004B000000000003A2048656170206D656D6F7224
:1004C0007920636F72727570746564000149182039
:1004D000ABBEFEE72600020070B505460C460A20BA
:1004E00000E06D1C00F011F835B128780028F8D133
:1004F00002E0641C00F009F814B120780028F8D15B
:10050000BDE870400A20AFF3008008B569468DF859
:1005100000000320ABBE08BD80B586B005908DF805
:1005200013100020039000F045F99DF813100520EA
:10053000029000F015FA0220019000F09DF90146AA
:1005400001988DF812109DF8121041F0020100F090
:1005500007FA029A05990B2000F0BAF9122020211F
:1005600000F0FEF9039800F087F9014603988DF832
:1005700012109DF8121041F0030100F0F1F9012072
:1005800000F018F906B080BD80B584B0039048F241
:10059000A060C0F20100029061208DF807000020E9
:1005A00000F052FA0DF107000121009100F09AFAD3
:1005B0000398202100F064FA009800F045FAFFE764
:1005C0000298411E029108B1FFE7F9E7E22000F02E
:1005D0006DF904B080BD000080B58EB08DF8370095
:1005E000E7218DF834104FF0E7300C908DF82C1087
:1005F0000A90C2208DF824004FF0C23008909DF878
:100600003700072805D1FFE70720002100F0A8F9EF
:100610007DE09DF83700172805D1FFE7172011214D
:1006200000F09EF972E0002007900821039100F08D
:1006300097F901203F2100F093F902200290032155
:10064000019100F08DF90199084600F089F90199AE
:10065000042000F085F902990520059000F080F94A
:1006600006200E21049100F07BF90799072000F085
:1006700077F90398079900F073F90799092000F0BA
:100680006FF9059A0A200CA900F022F9059A0B20AF
:1006900008A900F01DF90C20C32100F061F90D201C
:1006A000C42100F05DF90498C52100F059F90F202C
:1006B000C62100F055F9059A10200AA900F008F9A2
:1006C00007991120069000F04BF90799122000F0CD
:1006D00047F90799132000F043F90799142000F017
:1006E0003FF90799152000F03BF90799162000F013
:1006F00037F90699172000F033F907991C2000F00C
:100700002FF907991D2000F02BF9FFE7FFE70EB046
:1007100080BD000080B582B00020019000F04AF852
:100720000198FFF759FF0199084600F019F901995E
:10073000012000F015F90199022000F011F90321C0
:10074000084600F00DF90199042000F009F901991B
:10075000052000F005F906200E2100F001F902B095
:1007600080BD000080B582B08DF80600072000F043
:1007700083F88DF805009DF805004006002810D587
:10078000FFE79DF805009DF8061010EA410F08D01C
:10079000FFE70720402100F0E3F801208DF8070073
:1007A00003E000208DF80700FFE79DF8070002B086
:1007B00080BD000081B08DF803009DF8030048B1B2
:1007C000FFE740F21441C4F20201086840F0400023
:1007D000086008E040F21441C4F20201086820F009
:1007E00040000860FFE701B07047000080B543F6A5
:1007F0003001C4F20201086840F00200086040F2D3
:100800000042C4F20202106840F42860106040F216
:100810000841C4F20201086840F47C60086040F2BC
:100820002043C4F20203186845F2000CC0F2550CD4
:1008300040EA0C001860106840F4A040106040F2DC
:100840000442C4F20202106820F0C0001060086880
:1008500040F45040086040F21441C4F202010868BC
:1008600040F080000860086820F04000086000F058
:10087000B7F8FFF74FFF80BD80B582B08DF8070055
:10088000002000F0E1F80DF107000121009100F0D7
:1008900029F900990DF1060000F0F2F8009800F037
:1008A000D3F89DF8060002B080BD000080B582B08C
:1008B0008DF80700002000F0C7F80DF107000121B6
:1008C000009100F00FF9009800F0BEF802B080BD72
:1008D00080B588B08DF81B0005918DF813209DF828
:1008E00013000130FFF7C4FC0390039818B9FFE729
:1008F0000020079031E09DF81B0040F02000039994
:10090000087000208DF80B00FFE79DF80B009DF8A4
:10091000131088420EDAFFE705989DF80B10405C33
:10092000039A11444870FFE79DF80B0001308DF8E1
:100930000B00EAE7002000F087F803989DF81310F9
:10094000013100F0CFF80120019000F07DF803980C
:10095000FFF7BDFC01980790FFE7079808B080BD3E
:1009600080B582B08DF807008DF806109DF807005D
:1009700040F020008DF804009DF806008DF8050079
:10098000002000F061F801A8022100F0ABF801207E
:1009900000F05AF802B080BD43F63001C4F2020103
:1009A000086840F0010008600021C4F202010868F4
:1009B00040F4804008600421C4F20201086820F07D
:1009C000800008600821C4F20201086840F4404039
:1009D00008601421C4F20201002008607047000082
:1009E00043F64401C4F20201086840F480500860F4
:1009F00043F20001C4F20101086820F0030008601E
:100A0000086840F004000860086840F018000860BA
:100A1000086820F080000860086840F440700860B2
:100A2000086820F480600860086820F400600860AE
:100A300043F20402C4F2010200201060086840F092
:100A4000400008607047000081B08DF803009DF8F9
:100A5000030048B1FFE740F21441C4F20201086804
:100A600040F08000086008E040F21441C4F2020146
:100A7000086820F080000860FFE701B070470000C0
:100A800082B001900091FFE7009840B3FFE7FFE7D5
:100A900043F20800C4F2010000680006002801D5F6
:100AA000FFE7F5E743F20C01C4F201010020086002
:100AB000FFE743F20800C4F201000068C00708B96C
:100AC000FFE7F6E743F20C00C4F201000068019969
:100AD0004A1C01920870009801380090D4E702B0D7
:100AE0007047000083B00290019100200090FFE762
:100AF00000980199884217D2FFE7FFE743F2080008
:100B0000C4F2010000688007002801D4FFE7F5E780
:100B100002980099405C43F20C01C4F201010860A4
:100B2000009801300090E3E7FFE743F20800C4F2C9
:100B3000010000688007002801D4FFE7F5E7FFE720
:100B400043F20800C4F2010000680006002801D545
:100B5000FFE7F5E743F20C00C4F2010000680090E3
:100B600043F20800C4F201000068009003B070472F
:100B700082B043F60001C4F20201086840F48030FC
:100B80000860FFE743F60000C4F20200006880033B
:100B9000002801D4FFE7F5E743F64001C4F2020163
:100BA000086840F08050086047F20001C4F200017C
:100BB000086840F44040086043F60041C4F2020176
:100BC0000091086840F400700860086840F4806094
:100BD0000860086840F480700860086840F005000C
:100BE000086043F60801C4F2020108684FF60F726C
:100BF00010400860086840F4A0500860086840F49D
:100C00000040086043F60401C4F202010191086843
:100C10006FF311000860086840F00400086008687D
:100C200040F428500860086820F4403008600868E4
:100C300040F48000086043F60001C4F20201086835
:100C400040F080700860FFE743F60000C4F2020045
:100C500000688001002801D4FFE7F5E743F60801AA
:100C6000C4F20201086840F002000860FFE743F6A2
:100C70000800C4F20200006800F00C00082801D04F
:100C8000FFE7F4E702B070474EF68851CEF200015C
:100C9000086840F4700008607047000081B00020D0
:100CA000ADF80200FFE7BDF80200B0F5FA7F14DAF4
:100CB000FFE74FF6FF70ADF80000FFE7BDF800005A
:100CC000411EADF8001008B1FFE7F7E7FFE7BDF8F8
:100CD00002000130ADF80200E5E701B07047000006
:100CE00080B582B000200190FFF742FFFFF754FE6D
:100CF000FFF77CFD40F20000C2F20000017840F2F4
:100D00000100C2F20000FFF707FCFFE740F2060017
:100D1000C2F200000078FFF725FD70B1FFE740F256
:100D20006800C2F20000FFF72FFC1421C4F2020198
:100D3000086880F080000860FFE7FFF7AFFFE5E795
:100D4000F1EE100A4FF6FF71C0F2C03120EA010047
:100D500040F04070E1EE100A704700007C0D000882
:100D60000000002008000000C4010008840D0008F5
:100D70000800002080060000E001000803AABBCCA8
:040D8000DDEE0100A3
:0400000508000231BC
:00000001FF
